{
  "contractName": "RockPaperScissors",
  "abi": [
    {
      "constant": true,
      "inputs": [],
      "name": "playTime",
      "outputs": [
        {
          "name": "",
          "type": "uint256"
        }
      ],
      "payable": false,
      "stateMutability": "view",
      "type": "function"
    },
    {
      "constant": true,
      "inputs": [],
      "name": "winningMove",
      "outputs": [
        {
          "name": "",
          "type": "uint256"
        }
      ],
      "payable": false,
      "stateMutability": "view",
      "type": "function"
    },
    {
      "constant": true,
      "inputs": [],
      "name": "contractBalance",
      "outputs": [
        {
          "name": "",
          "type": "uint256"
        }
      ],
      "payable": false,
      "stateMutability": "view",
      "type": "function"
    },
    {
      "constant": true,
      "inputs": [],
      "name": "owner",
      "outputs": [
        {
          "name": "",
          "type": "address"
        }
      ],
      "payable": false,
      "stateMutability": "view",
      "type": "function"
    },
    {
      "constant": true,
      "inputs": [],
      "name": "waitTime",
      "outputs": [
        {
          "name": "",
          "type": "uint256"
        }
      ],
      "payable": false,
      "stateMutability": "view",
      "type": "function"
    },
    {
      "constant": true,
      "inputs": [],
      "name": "running",
      "outputs": [
        {
          "name": "",
          "type": "bool"
        }
      ],
      "payable": false,
      "stateMutability": "view",
      "type": "function"
    },
    {
      "constant": true,
      "inputs": [],
      "name": "savedAddress",
      "outputs": [
        {
          "name": "",
          "type": "address"
        }
      ],
      "payable": false,
      "stateMutability": "view",
      "type": "function"
    },
    {
      "constant": true,
      "inputs": [
        {
          "name": "",
          "type": "address"
        }
      ],
      "name": "players",
      "outputs": [
        {
          "name": "hash",
          "type": "bytes32"
        },
        {
          "name": "balances",
          "type": "uint256"
        },
        {
          "name": "active",
          "type": "bool"
        }
      ],
      "payable": false,
      "stateMutability": "view",
      "type": "function"
    },
    {
      "constant": true,
      "inputs": [],
      "name": "equalMove",
      "outputs": [
        {
          "name": "",
          "type": "uint256"
        }
      ],
      "payable": false,
      "stateMutability": "view",
      "type": "function"
    },
    {
      "inputs": [
        {
          "name": "timeInSecs",
          "type": "uint256"
        }
      ],
      "payable": false,
      "stateMutability": "nonpayable",
      "type": "constructor"
    },
    {
      "payable": false,
      "stateMutability": "nonpayable",
      "type": "fallback"
    },
    {
      "anonymous": false,
      "inputs": [
        {
          "indexed": false,
          "name": "player",
          "type": "address"
        }
      ],
      "name": "LogResetGame",
      "type": "event"
    },
    {
      "anonymous": false,
      "inputs": [
        {
          "indexed": false,
          "name": "player",
          "type": "address"
        },
        {
          "indexed": false,
          "name": "amount",
          "type": "uint256"
        },
        {
          "indexed": false,
          "name": "hash",
          "type": "bytes32"
        }
      ],
      "name": "LogPlayerSubmittedMove",
      "type": "event"
    },
    {
      "anonymous": false,
      "inputs": [
        {
          "indexed": false,
          "name": "player",
          "type": "address"
        },
        {
          "indexed": false,
          "name": "hash",
          "type": "bytes32"
        },
        {
          "indexed": false,
          "name": "move",
          "type": "uint256"
        }
      ],
      "name": "LogPlayerRevealedMove",
      "type": "event"
    },
    {
      "anonymous": false,
      "inputs": [
        {
          "indexed": false,
          "name": "player",
          "type": "address"
        },
        {
          "indexed": false,
          "name": "amount",
          "type": "uint256"
        }
      ],
      "name": "LogWithdraw",
      "type": "event"
    },
    {
      "anonymous": false,
      "inputs": [
        {
          "indexed": false,
          "name": "owner",
          "type": "address"
        },
        {
          "indexed": false,
          "name": "amount",
          "type": "uint256"
        },
        {
          "indexed": false,
          "name": "currentState",
          "type": "bool"
        }
      ],
      "name": "LogPaused",
      "type": "event"
    },
    {
      "constant": false,
      "inputs": [
        {
          "name": "hash",
          "type": "bytes32"
        }
      ],
      "name": "makeSecretMove",
      "outputs": [
        {
          "name": "success",
          "type": "bool"
        }
      ],
      "payable": true,
      "stateMutability": "payable",
      "type": "function"
    },
    {
      "constant": false,
      "inputs": [
        {
          "name": "password",
          "type": "bytes32"
        },
        {
          "name": "move",
          "type": "uint256"
        }
      ],
      "name": "reveal",
      "outputs": [
        {
          "name": "success",
          "type": "bool"
        }
      ],
      "payable": false,
      "stateMutability": "nonpayable",
      "type": "function"
    },
    {
      "constant": true,
      "inputs": [
        {
          "name": "account",
          "type": "address"
        },
        {
          "name": "password",
          "type": "bytes32"
        },
        {
          "name": "move",
          "type": "uint256"
        }
      ],
      "name": "createMove",
      "outputs": [
        {
          "name": "hash",
          "type": "bytes32"
        }
      ],
      "payable": false,
      "stateMutability": "pure",
      "type": "function"
    },
    {
      "constant": false,
      "inputs": [],
      "name": "withdraw",
      "outputs": [
        {
          "name": "success",
          "type": "bool"
        }
      ],
      "payable": false,
      "stateMutability": "nonpayable",
      "type": "function"
    },
    {
      "constant": false,
      "inputs": [],
      "name": "pause",
      "outputs": [
        {
          "name": "success",
          "type": "bool"
        }
      ],
      "payable": false,
      "stateMutability": "nonpayable",
      "type": "function"
    }
  ],
  "bytecode": "0x6060604052341561000f57600080fd5b604051602080611620833981016040528080519060200190919050508060038190555060035442016002819055506001600760006101000a81548160ff02191690831515021790555033600860006101000a81548173ffffffffffffffffffffffffffffffffffffffff021916908373ffffffffffffffffffffffffffffffffffffffff16021790555050611577806100a96000396000f3006060604052600436106100d0576000357c0100000000000000000000000000000000000000000000000000000000900463ffffffff168063016d63b5146100e0578063152b0bfa1461011457806331ebe9841461017f5780633ccfd60b146101a857806372b0537e146101d55780638456cb59146101fe5780638b7afe2e1461022b5780638da5cb5b14610254578063a2d66137146102a9578063ccca123b146102f1578063d85bd5261461031a578063d9b4918a14610347578063e2eb41ff1461039c578063e3d6721714610403575b34156100db57600080fd5b600080fd5b6100fa60048080356000191690602001909190505061042c565b604051808215151515815260200191505060405180910390f35b341561011f57600080fd5b610161600480803573ffffffffffffffffffffffffffffffffffffffff1690602001909190803560001916906020019091908035906020019091905050610897565b60405180826000191660001916815260200191505060405180910390f35b341561018a57600080fd5b61019261090b565b6040518082815260200191505060405180910390f35b34156101b357600080fd5b6101bb610911565b604051808215151515815260200191505060405180910390f35b34156101e057600080fd5b6101e8610aec565b6040518082815260200191505060405180910390f35b341561020957600080fd5b610211610af2565b604051808215151515815260200191505060405180910390f35b341561023657600080fd5b61023e610c70565b6040518082815260200191505060405180910390f35b341561025f57600080fd5b610267610c76565b604051808273ffffffffffffffffffffffffffffffffffffffff1673ffffffffffffffffffffffffffffffffffffffff16815260200191505060405180910390f35b34156102b457600080fd5b6102d7600480803560001916906020019091908035906020019091905050610c9c565b604051808215151515815260200191505060405180910390f35b34156102fc57600080fd5b610304611278565b6040518082815260200191505060405180910390f35b341561032557600080fd5b61032d61127e565b604051808215151515815260200191505060405180910390f35b341561035257600080fd5b61035a611291565b604051808273ffffffffffffffffffffffffffffffffffffffff1673ffffffffffffffffffffffffffffffffffffffff16815260200191505060405180910390f35b34156103a757600080fd5b6103d3600480803573ffffffffffffffffffffffffffffffffffffffff169060200190919050506112b7565b60405180846000191660001916815260200183815260200182151515158152602001935050505060405180910390f35b341561040e57600080fd5b6104166112ee565b6040518082815260200191505060405180910390f35b600060011515600760009054906101000a900460ff16151514151561045057600080fd5b6002544211156104c6577f56a4357644f13b5d64e5332b89222623f3677794b53f43fbfd543322ffc2b5b133604051808273ffffffffffffffffffffffffffffffffffffffff1673ffffffffffffffffffffffffffffffffffffffff16815260200191505060405180910390a16104c56112f4565b5b60006002541415156104e357600254421015156104e257600080fd5b5b6000803373ffffffffffffffffffffffffffffffffffffffff1673ffffffffffffffffffffffffffffffffffffffff16815260200190815260200160002060020160009054906101000a900460ff1615151561053e57600080fd5b67016345785d8a0000341015151561055557600080fd5b600260018054905010151561056957600080fd5b6001805480600101828161057d91906114d9565b9160005260206000209001600033909190916101000a81548173ffffffffffffffffffffffffffffffffffffffff021916908373ffffffffffffffffffffffffffffffffffffffff16021790555050816000803373ffffffffffffffffffffffffffffffffffffffff1673ffffffffffffffffffffffffffffffffffffffff168152602001908152602001600020600001816000191690555060016000803373ffffffffffffffffffffffffffffffffffffffff1673ffffffffffffffffffffffffffffffffffffffff16815260200190815260200160002060020160006101000a81548160ff0219169083151502179055506002600180549050101561070f57346000803373ffffffffffffffffffffffffffffffffffffffff1673ffffffffffffffffffffffffffffffffffffffff1681526020019081526020016000206001016000828254019250508190555033600760016101000a81548173ffffffffffffffffffffffffffffffffffffffff021916908373ffffffffffffffffffffffffffffffffffffffff1602179055505b600260018054905014156108085767016345785d8a000034036000803373ffffffffffffffffffffffffffffffffffffffff1673ffffffffffffffffffffffffffffffffffffffff1681526020019081526020016000206001016000828254019250508190555067016345785d8a0000600080600760019054906101000a900473ffffffffffffffffffffffffffffffffffffffff1673ffffffffffffffffffffffffffffffffffffffff1673ffffffffffffffffffffffffffffffffffffffff168152602001908152602001600020600101600082825403925050819055506702c68af0bb1400006006600082825401925050819055505b60035442016002819055507f23869d3a0ec1c2bb7b46fbabc8f9102a661865822be80a8a1f90f7e8ff1023a8333484604051808473ffffffffffffffffffffffffffffffffffffffff1673ffffffffffffffffffffffffffffffffffffffff1681526020018381526020018260001916600019168152602001935050505060405180910390a160019050919050565b6000838383604051808473ffffffffffffffffffffffffffffffffffffffff1673ffffffffffffffffffffffffffffffffffffffff166c0100000000000000000000000002815260140183600019166000191681526020018281526020019350505050604051809103902090509392505050565b60025481565b60008060011515600760009054906101000a900460ff16151514151561093657600080fd5b60025442101561099c576000803373ffffffffffffffffffffffffffffffffffffffff1673ffffffffffffffffffffffffffffffffffffffff16815260200190815260200160002060020160009054906101000a900460ff1615151561099b57600080fd5b5b6000803373ffffffffffffffffffffffffffffffffffffffff1673ffffffffffffffffffffffffffffffffffffffff168152602001908152602001600020600101549050806000803373ffffffffffffffffffffffffffffffffffffffff1673ffffffffffffffffffffffffffffffffffffffff168152602001908152602001600020600101600082825403925050819055506000811115610ae4577f4ce7033d118120e254016dccf195288400b28fc8936425acd5f17ce2df3ab7083382604051808373ffffffffffffffffffffffffffffffffffffffff1673ffffffffffffffffffffffffffffffffffffffff1681526020018281526020019250505060405180910390a13373ffffffffffffffffffffffffffffffffffffffff166108fc829081150290604051600060405180830381858888f193505050501515610ae357600080fd5b5b600191505090565b60045481565b6000806000600860009054906101000a900473ffffffffffffffffffffffffffffffffffffffff1673ffffffffffffffffffffffffffffffffffffffff163373ffffffffffffffffffffffffffffffffffffffff16141515610b5357600080fd5b600760009054906101000a900460ff1691508115600760006101000a81548160ff02191690831515021790555060065490506000811115610c6757806006600082825403925050819055507f941fd0c1847937a7f23f8ea87854983dd488b86476b34c51b09443cf84799af233600654600760009054906101000a900460ff16604051808473ffffffffffffffffffffffffffffffffffffffff1673ffffffffffffffffffffffffffffffffffffffff16815260200183815260200182151515158152602001935050505060405180910390a13373ffffffffffffffffffffffffffffffffffffffff166108fc829081150290604051600060405180830381858888f193505050501515610c6657600080fd5b5b60019250505090565b60065481565b600860009054906101000a900473ffffffffffffffffffffffffffffffffffffffff1681565b60008060011515600760009054906101000a900460ff161515141515610cc157600080fd5b60025442101515610cd157600080fd5b610cdc338585610897565b905080600019166000803373ffffffffffffffffffffffffffffffffffffffff1673ffffffffffffffffffffffffffffffffffffffff1681526020019081526020016000206000015460001916141515610d3557600080fd5b6002600180549050141515610d4957600080fd5b7fb0982f39b3fbba422bc2d05ba6531e45da2d12a04e10279210fed81c2e47a4fc338285604051808473ffffffffffffffffffffffffffffffffffffffff1673ffffffffffffffffffffffffffffffffffffffff1681526020018360001916600019168152602001828152602001935050505060405180910390a160006004541415610f285733600760016101000a81548173ffffffffffffffffffffffffffffffffffffffff021916908373ffffffffffffffffffffffffffffffffffffffff16021790555067016345785d8a000060066000828254039250508190555067016345785d8a00006000803373ffffffffffffffffffffffffffffffffffffffff1673ffffffffffffffffffffffffffffffffffffffff1681526020019081526020016000206001016000828254019250508190555060006001026000803373ffffffffffffffffffffffffffffffffffffffff1673ffffffffffffffffffffffffffffffffffffffff168152602001908152602001600020600001816000191690555060008060003373ffffffffffffffffffffffffffffffffffffffff1673ffffffffffffffffffffffffffffffffffffffff16815260200190815260200160002060020160006101000a81548160ff0219169083151502179055505b60006004541415156112575760045483141561102657670214e8348c4f00006000803373ffffffffffffffffffffffffffffffffffffffff1673ffffffffffffffffffffffffffffffffffffffff1681526020019081526020016000206001016000828254019250508190555066b1a2bc2ec50000600080600760019054906101000a900473ffffffffffffffffffffffffffffffffffffffff1673ffffffffffffffffffffffffffffffffffffffff1673ffffffffffffffffffffffffffffffffffffffff1681526020019081526020016000206001016000828254039250508190555067016345785d8a00006006600082825403925050819055505b600454831415801561103a57506005548314155b156111265766b1a2bc2ec50000600080600760019054906101000a900473ffffffffffffffffffffffffffffffffffffffff1673ffffffffffffffffffffffffffffffffffffffff1673ffffffffffffffffffffffffffffffffffffffff1681526020019081526020016000206001016000828254019250508190555066b1a2bc2ec500006000803373ffffffffffffffffffffffffffffffffffffffff1673ffffffffffffffffffffffffffffffffffffffff1681526020019081526020016000206001016000828254019250508190555067016345785d8a00006006600082825403925050819055505b6004548314158015611139575060055483145b156111ae5767016345785d8a00006000803373ffffffffffffffffffffffffffffffffffffffff1673ffffffffffffffffffffffffffffffffffffffff1681526020019081526020016000206001016000828254019250508190555067016345785d8a00006006600082825403925050819055505b60006001026000803373ffffffffffffffffffffffffffffffffffffffff1673ffffffffffffffffffffffffffffffffffffffff168152602001908152602001600020600001816000191690555060008060003373ffffffffffffffffffffffffffffffffffffffff1673ffffffffffffffffffffffffffffffffffffffff16815260200190815260200160002060020160006101000a81548160ff0219169083151502179055505b6112608361149b565b60048190555082600581905550600191505092915050565b60035481565b600760009054906101000a900460ff1681565b600760019054906101000a900473ffffffffffffffffffffffffffffffffffffffff1681565b60006020528060005260406000206000915090508060000154908060010154908060020160009054906101000a900460ff16905083565b60055481565b60008060028190555060006004819055506000600760016101000a81548173ffffffffffffffffffffffffffffffffffffffff021916908373ffffffffffffffffffffffffffffffffffffffff1602179055506000600581905550600090505b60018054905081101561148a57600060010260008060018481548110151561137857fe5b906000526020600020900160009054906101000a900473ffffffffffffffffffffffffffffffffffffffff1673ffffffffffffffffffffffffffffffffffffffff1673ffffffffffffffffffffffffffffffffffffffff168152602001908152602001600020600001816000191690555060008060006001848154811015156113fd57fe5b906000526020600020900160009054906101000a900473ffffffffffffffffffffffffffffffffffffffff1673ffffffffffffffffffffffffffffffffffffffff1673ffffffffffffffffffffffffffffffffffffffff16815260200190815260200160002060020160006101000a81548160ff0219169083151502179055508080600101915050611354565b600160006114989190611505565b50565b600060018214156114af57600290506114d4565b60028214156114c157600390506114d4565b60038214156114d357600190506114d4565b5b919050565b815481835581811511611500578183600052602060002091820191016114ff9190611526565b5b505050565b50805460008255906000526020600020908101906115239190611526565b50565b61154891905b8082111561154457600081600090555060010161152c565b5090565b905600a165627a7a72305820f9f02a864a5226701b32ab24e9838f5c6a503f8d27c184e5610113c7f79b85930029",
  "source": "pragma solidity 0.4.19;\n\ncontract RockPaperScissors{\n\n//Player can enter an interger representative of the move (Rock = 1, Paper=2, Scissors = 3  encrypted by a password \n//a Wait time is then started for the next player to make a move.\n//Once both players have made their moves, then \n//the players need to reveal their moves within appropriate Wait times.\n//If either player does not reveal their move in the allocated Wait time, \n//then as a penalty 0.1Ether from his/her total balance is retained by the contract.\n//If a reveal is made in time, then the winner takes away his own balance as well as 0.05Ether \n//from the opponent's balance. The opponent retains the other 0.05Ether\n\n    struct Player {\n        bytes32 hash;\n        uint balances;\n        bool active;\n    }\n    \n    mapping (address => Player) public players;\n    \n    address[] activePlayerAddress;\n\n    uint  public playTime;\n    uint  public waitTime;\n    uint  public winningMove;\n    uint  public equalMove;\n    uint  public contractBalance;\n    bool  public running;\n    address public savedAddress;\n    address public owner;\n    \n    event LogResetGame(address player);\n    event LogPlayerSubmittedMove (address player, uint amount, bytes32 hash);\n    event LogPlayerRevealedMove  (address player, bytes32 hash, uint move);\n    event LogWithdraw(address player, uint amount);\n    event LogPaused(address owner, uint amount, bool currentState);\n\n    modifier onlyIfRunning{\n      require (running == true);\n      _;\n    }\n    \n    function RockPaperScissors(uint timeInSecs) public{\n        waitTime = timeInSecs;\n        playTime = now + waitTime;\n        running = true;\n        owner = msg.sender;\n    }\n\n\n    function makeSecretMove(bytes32 hash) public payable onlyIfRunning returns(bool success){\n    // if previous game is over, then reset the game\n       if(now > playTime){\n         LogResetGame(msg.sender);\n         resetGame();  \n       }\n    // if game has started (avoid just after reset), then check if playTime is not over\n       if(playTime!= 0){\n           require(now < playTime);\n       }\n    // do not allow same player to enter a second move until game is over\n       require(!players[msg.sender].active);\n    // wager per play is 0.1 ether\n       require(msg.value >= 0.1 ether); \n    // only allow 2 players in a game \n       require(activePlayerAddress.length < 2); \n       activePlayerAddress.push(msg.sender);\n    // After both players entered the game, \n    // 0.1 ether from each player is alloted to the contract balance initially, \n    // at the end of the game, winner gets back 0.15 ether from contract's balance\n    // loser gets 0.05 ether from the contract's balance\n    // if any player does not reveal in time, then his ether stays with the contract balance\n    // the 'reveal'ed player gets back his 0.1 ether from the contract's balance\n    // thus reveal returns atleast 50% of your deposit while on non-reveal returns 0%\n       players[msg.sender].hash = hash;\n       players[msg.sender].active = true;\n    // set the balances in the first player's account incase second player doesnt turn up\n       if(activePlayerAddress.length < 2){\n        players[msg.sender].balances += msg.value;\n        savedAddress = msg.sender; \n       }    \n    // both players submitted move, now do balances management\n       if(activePlayerAddress.length == 2){\n        players[msg.sender].balances += (msg.value - 0.1 ether);\n        players[savedAddress].balances -= 0.1 ether;\n        contractBalance += 0.2 ether;\n       }\n       playTime = now + waitTime;\n       LogPlayerSubmittedMove(msg.sender, msg.value, hash); \n       return true;\n    }\n    \n    \n    function reveal(bytes32 password, uint move) public onlyIfRunning returns(bool success){\n       require(now < playTime);\n       bytes32 hash = createMove(msg.sender, password, move);\n       require(players[msg.sender].hash == hash);\n     //Reveal only if both players have made a SecretMove earlier, \n       require(activePlayerAddress.length == 2);\n       LogPlayerRevealedMove(msg.sender, hash, move); \n    // execute the below 'if' statements for the initial reveal in the game   \n       if (winningMove == 0){\n        // save the first revealing address for balance management later on    \n           savedAddress = msg.sender;\n        // return the 0.1ether from contract to the msg.sender as reveal is made   \n           contractBalance -= 0.1 ether;\n           players[msg.sender].balances += 0.1 ether;\n        // reset the hash of the msg.sender and prevent duplicate reveal    \n           players[msg.sender].hash = 0;\n           players[msg.sender].active = false;\n       }\n    // execute the below 'if' statements for the second reveal in the game   \n        if (winningMove != 0){\n          if(move == winningMove){\n              players[msg.sender].balances += 0.15 ether;\n              players[savedAddress].balances -= 0.05 ether;\n              contractBalance -= 0.1 ether;\n          } \n          if(move != winningMove && move != equalMove){\n              players[savedAddress].balances += 0.05 ether;\n              players[msg.sender].balances += 0.05 ether;\n              contractBalance -= 0.1 ether;\n          } \n          if(move != winningMove && move == equalMove){\n              players[msg.sender].balances += 0.1 ether;\n              contractBalance -= 0.1 ether;\n          } \n          players[msg.sender].hash = 0;\n          players[msg.sender].active = false;\n        }\n       winningMove = getWinningMove(move);\n       // save the first revealed move, to check if the second revealed move is the same\n       equalMove = move;\n       return true;\n    }\n\n    \n    function resetGame() private{\n           playTime = 0;\n           winningMove = 0;\n           savedAddress = 0;\n           equalMove = 0;\n           for (uint i=0; i<activePlayerAddress.length; i++){\n               players[activePlayerAddress[i]].hash = 0;\n               players[activePlayerAddress[i]].active = false;\n           }\n           delete activePlayerAddress;\n     }\n\n    \n    //Enter numbers to represent move: Rock = 1, Paper = 2, Scissors = 3  \n    //along with a password to encode the move\n    function createMove(address account, bytes32 password, uint move) public pure returns(bytes32 hash){\n        return keccak256(account, password, move);\n    }\n\n    \n    function getWinningMove(uint move) private pure returns(uint winMove){\n    // Rock = 1, Paper=2, Scissors = 3   \n        if(move == 1 ) return 2;\n        if(move == 2 ) return 3;\n        if(move == 3 ) return 1;\n    }\n    \n    \n   function  withdraw() public onlyIfRunning returns (bool success){\n      // withdrawal is possible if game is over\n      // if the game has started, withdrawal possible only by an inactive player  \n       if(now < playTime){\n           require(!players[msg.sender].active);\n       }\n       uint amount = players[msg.sender].balances;\n       players[msg.sender].balances -= amount;\n       if (amount > 0) {\n         LogWithdraw(msg.sender, amount);\n         msg.sender.transfer(amount); \n      }\n      return true;\n    }\n   \n\n    function pause() public returns(bool success){\n       require(msg.sender == owner);\n       bool state = running;\n       running = !state;\n       uint amount = contractBalance;\n       if(amount > 0){\n           contractBalance -= amount;\n           LogPaused(msg.sender, contractBalance, running);\n           msg.sender.transfer(amount);\n       }\n       return true;\n    }\n\n    \n    function() public{\n       revert();\n    }\n  \n    \n}\n\n",
  "sourcePath": "/home/pritty/DAPPS/RockPaperScissors/contracts/RockPaperScissors.sol",
  "compiler": {
    "name": "solc",
    "version": "0.4.19+commit.c4cbbb05.Emscripten.clang"
  },
  "schemaVersion": "2.0.0",
  "updatedAt": "2018-07-02T12:42:01.854Z"
}